:020000040800F2
:1000000000500020F9100008E5020008EB0200088B
:10001000F1020008F7020008FD02000800000000DD
:1000200000000000000000000000000003030008C2
:100030000F030008000000001B030008270300084E
:100040004111000841110008411100084111000848
:100050004111000841110008411100084111000838
:100060004111000841110008411100084111000828
:100070004111000841110008411100084111000818
:100080004111000841110008411100084111000808
:1000900041110008411100084111000841110008F8
:1000A00041110008411100084111000841110008E8
:1000B00041110008411100084111000841110008D8
:1000C00041110008411100084111000841110008C8
:1000D00041110008411100084111000841110008B8
:1000E0004111000841110008411100080000000002
:1000F0000000000000000000000000000000000000
:0C01000000000000000000005FF808F1A3
:10010C0010B5054C237833B9044B13B10448AFF345
:10011C0000800123237010BD0C00002000000000A3
:10012C009C11000808B5034B1BB103490348AFF3FE
:10013C00008008BD00000000100000209C11000889
:10014C0080B500AF00F0F6F800F00EF800F04EF8B5
:10015C004FF47A7000F050F94FF40051014800F060
:10016C00C1FBF5E70010014080B590B000AF07F17E
:10017C00180328220021184601F002F83B1D00222A
:10018C001A605A609A60DA601A610223BB6101231B
:10019C00BB621023FB6202237B630023BB634FF41F
:1001AC006013FB6307F11803184600F0B5FB034618
:1001BC00002B01D000F05AF80F237B600223BB60A8
:1001CC000023FB604FF480633B6100237B613B1D8C
:1001DC000221184600F020FE0346002B01D000F04F
:1001EC0045F800BF4037BD4680BD000080B586B0E5
:1001FC0000AF07F1080300221A605A609A60DA60B7
:10020C00184A184B9B6943F010039361154B9B697B
:10021C0003F010037B607B68124A124B9B6943F01E
:10022C00040393610F4B9B6903F004033B603B6831
:10023C0000224FF400510C4800F03CFB4FF40053EB
:10024C00BB600123FB6000233B6102237B6107F150
:10025C0008031946044800F0D3F900BF1837BD460F
:10026C0080BD00BF001002400010014080B400AF00
:10027C0072B6FEE780B485B000AF154A144B9B698B
:10028C0043F001039361124B9B6903F00103BB60C4
:10029C00BB680F4A0E4BDB6943F08053D3610C4BA8
:1002AC00DB6903F080537B607B680A4B5B68FB6007
:1002BC00FB6823F0E063FB60FB6843F00073FB60BA
:1002CC00044AFB68536000BF1437BD4680BC7047BE
:1002DC00001002400000014080B400AFFEE780B483
:1002EC0000AFFEE780B400AFFEE780B400AFFEE7DE
:1002FC0080B400AFFEE780B400AF00BFBD4680BC49
:10030C00704780B400AF00BFBD4680BC704780B45E
:10031C0000AF00BFBD4680BC704780B500AF00F099
:10032C004FF800BF80BD80B400AF00BFBD4680BC9D
:10033C007047000080B500AF084A084B1B6843F0BB
:10034C0010031360032000F027F90F2000F008F8C9
:10035C00FFF790FF0023184680BD00BF002002402D
:10036C0080B582B000AF7860124B1A68124B1B78C4
:10037C0019464FF47A73B3FBF1F3B2FBF3F318465F
:10038C0000F031F90346002B01D001230EE07B680D
:10039C000F2B0AD8002279684FF0FF3000F007F9D4
:1003AC00064A7B681360002300E0012318460837D7
:1003BC00BD4680BD00000020080000200400002085
:1003CC0080B400AF054B1B781A46054B1B681344D1
:1003DC00034A136000BFBD4680BC70470800002074
:1003EC002800002080B400AF024B1B681846BD46A5
:1003FC0080BC70472800002080B584B000AF7860C6
:10040C00FFF7F0FFB8607B68FB60FB68B3F1FF3F60
:10041C0005D0094B1B781A46FB681344FB6000BFE0
:10042C00FFF7E0FF0246BB68D21AFB689A42F7D38B
:10043C0000BF1037BD4680BD0800002080B485B0D9
:10044C0000AF78607B6803F00703FB600C4BDB6844
:10045C00BB60BA684FF6FF031340BB60FB681A021F
:10046C00BB68134343F0BF6343F40033BB60044ADF
:10047C00BB68D36000BF1437BD4680BC704700BF5B
:10048C0000ED00E080B400AF044BDB681B0A03F006
:10049C0007031846BD4680BC704700BF00ED00E066
:1004AC0080B483B000AF03463960FB7197F9073015
:1004BC00002B0ADB0D4997F907303A68D2B21201CA
:1004CC00D2B20B4483F800230AE00949FB7903F00C
:1004DC000F03043B3A68D2B21201D2B20B441A7623
:1004EC0000BF0C37BD4680BC704700BF00E100E088
:1004FC0000ED00E080B489B000AFF860B9607A60BC
:10050C00FB6803F00703FB61FB69C3F10703042BD2
:10051C0028BF0423BB61FB690433062B02D9FB699A
:10052C00033B00E000237B610122BB6902FA03F369
:10053C005A1EBB681A407B699A4001217B6901FAFB
:10054C0003F3591E7B680B40134318462437BD46F2
:10055C0080BC704780B582B000AF78607B68013B8F
:10056C00B3F1807F01D301230FE00A4A7B68013B82
:10057C0053600F214FF0FF30FFF792FF054B002225
:10058C009A60044B07221A60002318460837BD46B0
:10059C0080BD00BF10E000E080B582B000AF786095
:1005AC007868FFF74BFF00BF0837BD4680BD80B5AC
:1005BC0086B000AF0346B9607A60FB7300237B61A1
:1005CC00FFF760FF78617A68B9687869FFF792FF86
:1005DC00024697F90F3011461846FFF761FF00BF2E
:1005EC001837BD4680BD80B582B000AF78607868A2
:1005FC00FFF7B0FF034618460837BD4680BD000024
:10060C0080B48BB000AF7860396000237B6200232C
:10061C003B6227E101227B6A02FA03F3FB613B6830
:10062C001A68FB691340BB61BA69FB699A4240F0D6
:10063C0016813B685B68122B34D0122B0DD8022B21
:10064C002BD0022B04D8002B31D0012B1CD048E02E
:10065C00032B43D0112B1BD043E0894A934226D065
:10066C00874A934206D8874A934220D0864A9342BF
:10067C001DD036E0854A934219D0854A934216D054
:10068C00844A934213D02CE03B68DB683B6228E041
:10069C003B68DB6804333B6223E03B68DB68083370
:1006AC003B621EE03B68DB680C333B6219E03B6845
:1006BC009B68002B02D104233B6212E03B689B68D1
:1006CC00012B05D108233B627B68FA691A6108E0AB
:1006DC0008233B627B68FA695A6102E000233B62A3
:1006EC0000BFBB69FF2B01D87B6801E07B6804333A
:1006FC007B61BB69FF2B02D87B6A9B0002E07B6AA3
:10070C00083B9B003B617B691A680F213B6901FA2E
:10071C0003F3DB431A40396A3B6901FA03F31A43CA
:10072C007B691A603B685B6803F08053002B00F018
:10073C009680594A584B9B6943F001039361564B81
:10074C009B6903F00103BB60BB68544A7B6A9B083E
:10075C00023352F82330FB607B6A03F003039B00E7
:10076C000F2202FA03F3DB43FA681340FB607B6849
:10077C004B4A934213D07B684A4A93420DD07B6814
:10078C00494A934207D07B68484A934201D10323DC
:10079C0006E0042304E0022302E0012300E000232E
:1007AC007A6A02F0030292009340FA681343FB60EA
:1007BC003A497B6A9B080233FA6841F823203B686C
:1007CC005B6803F48033002B06D03949384B1A6828
:1007DC00BB6913430B6006E03549354B1A68BB699E
:1007EC00DB4313400B603B685B6803F40033002B66
:1007FC0006D02F492E4B5A68BB6913434B6006E059
:10080C002B492B4B5A68BB69DB4313404B603B684D
:10081C005B6803F48013002B06D02549244B9A689F
:10082C00BB6913438B6006E02149214B9A68BB6975
:10083C00DB4313408B603B685B6803F40013002BB5
:10084C0006D01B491A4BDA68BB691343CB6006E030
:10085C001749174BDA68BB69DB431340CB607B6AE3
:10086C0001337B623B681A687B6A22FA03F3002B24
:10087C007FF4D0AE00BF2C37BD4680BC704700BFA4
:10088C0000002110000011100000121000003110A7
:10089C000000321000002210001002400000014045
:1008AC0000080140000C0140001001400014014000
:1008BC000004014080B483B000AF78600B467B80AD
:1008CC0013467B707B78002B03D07A887B681A6187
:1008DC0003E07B881A047B681A6100BF0C37BD46A5
:1008EC0080BC704780B485B000AF78600B467B80CD
:1008FC007B68DB68FB607A88FB6813401A04FB6832
:10090C00D9437B880B401A437B681A6100BF1437AC
:10091C00BD4680BC7047000080B586B000AF7860E3
:10092C007B68002B01D101236CE27B681B6803F010
:10093C000103002B00F08780924B5B6803F00C03E3
:10094C00042B0CD08F4B5B6803F00C03082B12D1DB
:10095C008C4B5B6803F48033B3F5803F0BD1894B30
:10096C001B6803F40033002B6CD07B685B68002B96
:10097C0068D1012346E27B685B68B3F5803F06D102
:10098C00804A804B1B6843F4803313602EE07B68F5
:10099C005B68002B0CD17B4A7A4B1B6823F48033A9
:1009AC001360784A774B1B6823F4802313601DE097
:1009BC007B685B68B3F5A02F0CD1724A714B1B6836
:1009CC0043F4802313606F4A6E4B1B6843F48033EF
:1009DC0013600BE06B4A6B4B1B6823F48033136082
:1009EC00684A684B1B6823F4802313607B685B6840
:1009FC00002B13D0FFF7F6FC386108E0FFF7F2FC90
:100A0C0002463B69D31A642B01D90323FAE15D4BEF
:100A1C001B6803F40033002BF0D014E0FFF7E2FC6A
:100A2C00386108E0FFF7DEFC02463B69D31A642B01
:100A3C0001D90323E6E1534B1B6803F40033002B6D
:100A4C00F0D100E000BF7B681B6803F00203002BB1
:100A5C0063D04C4B5B6803F00C03002B0BD0494B61
:100A6C005B6803F00C03082B1CD1464B5B6803F44A
:100A7C008033002B16D1434B1B6803F00203002B71
:100A8C0005D07B681B69012B01D00123BAE13D49DC
:100A9C003C4B1B6823F0F8027B685B69DB0013435B
:100AAC000B603AE07B681B69002B20D0364B01228F
:100ABC001A60FFF797FC386108E0FFF793FC0246D9
:100ACC003B69D31A022B01D903239BE12D4B1B68E5
:100ADC0003F00203002BF0D02A492A4B1B6823F0A9
:100AEC00F8027B685B69DB0013430B6015E0264B57
:100AFC0000221A60FFF776FC386108E0FFF772FC01
:100B0C0002463B69D31A022B01D903237AE11D4B10
:100B1C001B6803F00203002BF0D17B681B6803F009
:100B2C000803002B3AD07B689B69002B19D0174B1C
:100B3C0001221A60FFF756FC386108E0FFF752FCFF
:100B4C0002463B69D31A022B01D903235AE10D4B00
:100B5C005B6A03F00203002BF0D0012000F0A8FA2E
:100B6C001CE00A4B00221A60FFF73CFC38610FE0D6
:100B7C00FFF738FC02463B69D31A022B08D9032332
:100B8C0040E100BF0010024000004242800442429B
:100B9C009E4B5B6A03F00203002BE9D17B681B6858
:100BAC0003F00403002B00F0A6800023FB75974B89
:100BBC00DB6903F08053002B0DD1944A934BDB6916
:100BCC0043F08053D361914BDB6903F08053BB60DE
:100BDC00BB680123FB758E4B1B6803F48073002BE1
:100BEC0018D18B4A8A4B1B6843F480731360FFF750
:100BFC00F9FB386108E0FFF7F5FB02463B69D31AB5
:100C0C00642B01D90323FDE0814B1B6803F4807333
:100C1C00002BF0D07B68DB68012B06D17B4A7B4B29
:100C2C001B6A43F0010313622DE07B68DB68002B29
:100C3C000CD1764A754B1B6A23F001031362734A7D
:100C4C00724B1B6A23F0040313621CE07B68DB68A5
:100C5C00052B0CD16D4A6D4B1B6A43F004031362D8
:100C6C006A4A6A4B1B6A43F0010313620BE0674A42
:100C7C00664B1B6A23F001031362644A634B1B6AC5
:100C8C0023F0040313627B68DB68002B15D0FFF79D
:100C9C00A9FB38610AE0FFF7A5FB02463B69D31AB2
:100CAC0041F28832934201D90323ABE0574B1B6AC4
:100CBC0003F00203002BEED014E0FFF793FB386136
:100CCC000AE0FFF78FFB02463B69D31A41F28832E8
:100CDC00934201D9032395E04C4B1B6A03F00203AA
:100CEC00002BEED1FB7D012B05D1484A474BDB692C
:100CFC0023F08053D3617B68DB69002B00F081808B
:100D0C00424B5B6803F00C03082B61D07B68DB69FA
:100D1C00022B46D13F4B00221A60FFF763FB386170
:100D2C0008E0FFF75FFB02463B69D31A022B01D99F
:100D3C00032367E0354B1B6803F00073002BF0D1E5
:100D4C007B681B6AB3F5803F08D130492F4B5B6839
:100D5C0023F400327B689B6813434B602B482B4B6E
:100D6C005B6823F474127B68196A7B685B6A0B43BB
:100D7C0013434360274B01221A60FFF733FB3861A2
:100D8C0008E0FFF72FFB02463B69D31A022B01D96F
:100D9C00032337E01D4B1B6803F00073002BF0D0CE
:100DAC002FE01C4B00221A60FFF71CFB386108E097
:100DBC00FFF718FB02463B69D31A022B01D9032318
:100DCC0020E0124B1B6803F00073002BF0D118E0ED
:100DDC007B68DB69012B01D1012313E00B4B5B68B2
:100DEC00FB60FB6803F480327B681B6A9A4206D175
:100DFC00FB6803F470127B685B6A9A4201D0012392
:100E0C0000E0002318461837BD4680BD0010024094
:100E1C00007000406000424280B584B000AF786042
:100E2C0039607B68002B01D10123D0E06A4B1B6831
:100E3C0003F007023B689A4210D26749664B1B6865
:100E4C0023F007023B6813430B60634B1B6803F0F2
:100E5C0007023B689A4201D00123B8E07B681B680B
:100E6C0003F00203002B20D07B681B6803F0040303
:100E7C00002B05D0594A594B5B6843F4E06353602F
:100E8C007B681B6803F00803002B05D0534A534BB7
:100E9C005B6843F4605353605049504B5B6823F0DC
:100EAC00F0027B689B6813434B607B681B6803F004
:100EBC000103002B40D07B685B68012B07D1474BAB
:100ECC001B6803F40033002B15D101237FE07B68F2
:100EDC005B68022B07D1414B1B6803F00073002B9E
:100EEC0009D1012373E03D4B1B6803F00203002B77
:100EFC0001D101236BE03949384B5B6823F00302C5
:100F0C007B685B6813434B60FFF76CFAF8600AE090
:100F1C00FFF768FA0246FB68D31A41F28832934213
:100F2C0001D9032353E02D4B5B6803F00C027B6863
:100F3C005B689B009A42EBD1274B1B6803F00702BE
:100F4C003B689A4210D92449234B1B6823F00702B3
:100F5C003B6813430B60204B1B6803F007023B6894
:100F6C009A4201D0012332E07B681B6803F0040332
:100F7C00002B08D01949194B5B6823F4E0627B689D
:100F8C00DB6813434B607B681B6803F00803002B82
:100F9C0009D01249114B5B6823F460527B681B69C2
:100FAC00DB0013434B6000F021F801460B4B5B68F0
:100FBC001B0903F00F030A4AD35C21FA03F3094A15
:100FCC001360094B1B681846FFF7CAF90023184633
:100FDC001037BD4680BD00BF00200240001002400B
:100FEC00C8110008000000200400002090B48AB052
:100FFC0000AF2A4B3C1D0FCB84E80F00284B1B88FD
:10100C003B800023FB610023BB6100237B62002338
:10101C007B6100233B62234B5B68FB61FB6903F044
:10102C000C03042B02D0082B03D02DE01E4B3B628B
:10103C002DE0FB699B0C03F00F0307F1280213440E
:10104C0013F8243C7B61FB6903F48033002B13D031
:10105C00144B5B685B0C03F0010307F1280213448B
:10106C0013F8283CBB617B690F4A02FB03F2BB6996
:10107C00B2FBF3F37B6204E07B690C4A02FB03F3E3
:10108C007B627B6A3B6202E0074B3B6200BF3B6AC0
:10109C0018462837BD4690BC704700BFB4110008F5
:1010AC00C41100080010024000127A0000093D0033
:1010BC0080B485B000AF78600A4B1B680A4AA2FB6B
:1010CC0003235B0A7A6802FB03F3FB6000BFFB6837
:1010DC005A1EFA60002BF9D100BF1437BD4680BCF4
:1010EC00704700BF00000020D34D62100C480D4922
:1010FC000D4A002302E0D458C4500433C4188C4267
:10110C00F9D30A4A0A4C002301E013600432A242CC
:10111C00FBD3FFF708F900F00FF8FFF711F8704751
:10112C00000000200C000020E01100080C00002042
:10113C002C000020FEE7000070B500250C4E0D4C75
:10114C00A41BA410A54209D100F022F800250A4ED8
:10115C000A4CA41BA410A54205D170BD56F825302D
:10116C0098470135EEE756F8253098470135F2E7F8
:10117C00D8110008D8110008D8110008DC1100089B
:10118C0003460244934200D1704703F8011BF9E770
:10119C00F8B500BFF8BC08BC9E467047F8B500BF58
:0811AC00F8BC08BC9E46704728
:1011B40002030405060708090A0B0C0D0E0F101094
:1011C400010200000000000000000000010203040E
:0411D40006070809F9
:0411D80031010008D9
:0411DC000D010008F9
:0C11E0000024F4001000000001000000DA
:04000005080010F9E6
:00000001FF
